:1000000000000120750300005D0300005F03000095
:1000100061030000630300006503000000000000AE
:100020000000000000000000000000006703000066
:1000300069030000000000006B0300006D03000076
:100040006F0300006F030000C51E0000551900007B
:10005000651900006F0300006F030000191600000F
:10006000AD1500006F0300006F0300006F03000078
:100070006F0300006F0300006F0300006F030000B8
:100080006F0300006F0300006F0300006F030000A8
:100090006F0300006F0300006F0300006F03000098
:1000A0006F0300006F0300006F0300006F03000088
:1000B0006F0300006F03000000000000000000005C
:1000C0006F0300006F0300006F0300006F03000068
:1000D0006F0300006F0300006F03000000000000CA
:1000E0000000000000000000000000000000000010
:1000F0000000000000000000000000000000000000
:1001000000000000000000000000000000000000EF
:1001100000000000000000000000000000000000DF
:1001200000000000000000000000000000000000CF
:1001300000000000000000000000000000000000BF
:1001400000000000000000000000000000000000AF
:10015000000000000000000000000000000000009F
:10016000000000000000000000000000000000008F
:10017000000000000000000000000000000000007F
:10018000000000000000000000000000000000006F
:10019000000000000000000000000000000000005F
:1001A000000000000000000000000000000000004F
:1001B000000000000000000000000000000000003F
:1001C000000000000000000000000000000000002F
:1001D000000000000000000000000000000000001F
:1001E000000000000000000000000000000000000F
:1001F00000000000000000000000000000000000FF
:10020000354936480A1A02D0072291438D463449AF
:1002100034480A1A06D00722914381F30988022242
:1002200082F3148830483149314A00F044F83148AB
:100230003149324A00F03FF831483249324A00F041
:100240003AF832483249334A00F035F832483349F7
:10025000334A00F030F833483349344A00F02BF881
:1002600033483449344A00F026F8344834490022EF
:1002700000F02CF833483449002200F027F83348C6
:100280003349091A082902DB002202604160314A21
:1002900090471F481F49884205D00268043003B4C4
:1002A000904703BCF7E700208646EC46002000217B
:1002B000294A9047FEE7884207D0521A05D00378B2
:1002C00001300B700131013AF9D17047884202D0F8
:1002D00002700130FAE770470000012000E00020C2
:1002E0000000012000000120C05400000000002098
:1002F0003C000020D0030000D0030000944C00001C
:10030000C05400000000002000000020004D00004C
:10031000004D0000004D0000004D0000004D0000A9
:10032000004D0000004D0000004D0000C0540000D2
:10033000FC5400003C0000203C0000203C00002059
:10034000F80B0020F80B0020F80B0020F80B002021
:10035000F82B00209D0300002D2A0000FEE7FEE799
:10036000FEE7FEE7FEE7FEE7FEE7FEE7FEE7FEE765
:1003700000F002B8FFF7FCBF0F484FF007018843B9
:1003800085460E4880470E48016841F470010160BF
:10039000BFF34F8FBFF36F8FFFF732BF09480A4992
:1003A0000A4A884207D0521A05D0037801300B70F0
:1003B0000131013AF9D1704700000120192C0000E9
:1003C00088ED00E0004D000000000020000000204B
:1003D000037813F0040216D003F00303012B03D0BB
:1003E000022B09D0012070470A6800880232C0F34E
:1003F000831002440A60F5E70B684288023303EB7E
:1004000092130B60EEE71046704700002DE9F04FA5
:10041000DFF810A10F4685B00446861C0020154663
:1004200000F000FDDAF804203A60DAF8083003F54D
:1004300080739B1A0AF21C470AF583690AF2144872
:10044000B34219D30020002D68D004F00F039B01A4
:1004500043F0050363F30F00DAF80430DAB2033235
:1004600033444AF822000020CAF8043000F0DCFCD3
:10047000012005B0BDE8F08F0121384600F0F9FCFD
:10048000484600F00EFD404600F00BFDDAF808008B
:100490000090C0B203300AEB80006946FFF798FF76
:1004A000009B30BBDAB20AEB8202D16801919A1C40
:1004B0000133DBB20AEB83030092D3F80CB001F0F6
:1004C0000303012B22D0022B15D08346404600F0B7
:1004D000EBFC10B1009BCAF808305946384600F0D2
:1004E000C8FCDAF80830DAF8042003F580739B1AA8
:1004F000A6E7D8B2CEE7BDF80630C3F389130333BD
:100500004FEA1B4B02EB93030093DFE7BDF8043087
:10051000C3F383134FEA1B4B1344F5E7A40544F0E0
:10052000060099E70C010020064B074810B5002291
:100530001A7000F020FF044610B9044800F088FF4C
:10054000204610BD0C010020EC4C0000184D0000AE
:1005500030B50A4C71B10A4A0A49121BD20800236D
:100560009A4201D1002030BD31F82350854202D09B
:100570000133F5E7034654F83300F4E7944C0000E8
:10058000CC4C000000000020094B013903EBC000F7
:10059000032909D8DFE801F00A02040604207047A5
:1005A00000797047407970470020704702207047FB
:1005B000944C000070470000034BD3E90130C31A8C
:1005C00058425841704700BF0C0100202DE9FF41FF
:1005D000FFF7F2FF0546002840F0E980754CC4F8AB
:1005E0001804BFF34F8FA3680093DBB2033304EB0F
:1005F00083006946FFF7ECFE009B18B1D4F818247D
:10060000002A5AD0DAB2991C013304EB8202DBB221
:1006100004EB8303D268DB68029302F00303022B2E
:100620000192009154D1BDF806306348C3F3891795
:10063000502F3E4628BF502606F1080166F38F135F
:10064000C1F30901ADF8063000F0ADFE0546002803
:1006500000F0988000F0D6FE0023082201A9284669
:1006600000F0E2FE0099CB43DBB20133C9B20331A3
:10067000B6EB830F4FEA830204EB810125D95FFAC1
:1006800082F80823A6EB0806284600F0CDFEF6B255
:1006900008F10803494903F0FC033246284600F0FC
:1006A000C3FE009B033703EB97070097D4F8183479
:1006B000002B43D1D4F8106453E062689A4294D876
:1006C000A260284604B0BDE8F08108233246E5E781
:1006D000012B57D1BDF804303748C3F383110629E5
:1006E00028BF062161F38913023101F00F0189004F
:1006F000ADF8043000F057FE0546002842D000F067
:1007000081FE0023082201A9284600F08DFE002664
:10071000BDF80420C2F38312B300964203F108032C
:10072000C4D200994A1CC9B20331009204EB810182
:100730000422284600F078FE0136E9E7284600F05A
:1007400065FEFFF739FF80F00100C5B2B9E7F36835
:100750005B7923B1336829461B6830469847F368B4
:100760001E68002EF3D1284600F050FE304600F0FF
:1007700059FBD4F818340BB9009BA360002000F09B
:1007800053FBDEE7D4F8104454B90D4B0D480E4925
:10079000C01AC008000440F0020000F05FF8D0E783
:1007A000236820469B689847E3681C68ECE70025AF
:1007B00087E700BF0C010020EC4C0000180100206E
:1007C000944C0000C44C0000004D00002DE9F3479C
:1007D00004460E46924601A9012218469946FFF7A3
:1007E00015FE1C4F10B3019D4FF00008AA1CC84510
:1007F00008EB020125D11848002100F017FB80F317
:100800001000000440EA1440E4006B1C04F03804BB
:10081000DBB2EDB244F0010407EB8303033544EA95
:10082000881444EA8624D86047F825403B781BB1F9
:10083000FFF7CCFE0028FBD1FFF7BCFE02B0BDE8FD
:10084000F087C9B207EB81015AF82830CB6008F174
:100850000108CCE70C0100202805002000231A46DF
:10086000FFF7B4BF30B50F4CD4F810240346002076
:10087000114631B9D96808714AB9C4F810340A6010
:1008800030BDC9680D79854206D00968F1E7D268A4
:1008900014680C601360F3E701300A28E8D14FF0C8
:1008A000FF30EDE70C01002038B5084B0125D3F8E7
:1008B00010441D7004B938BDE3685D71236820469B
:1008C0005B689847E3681C68F4E700BF0C010020F0
:1008D00030B5C38885B004460D4633B1144A009242
:1008E0001449154A284600F039FB217A05291DD004
:1008F000637A4BB1A088FFF747FE104B104953F8BD
:100900002020284600F02AFB227A0E4BA08853F8BC
:10091000222003920021FFF71BFE039A0A49034697
:10092000284605B0BDE8304000F018BB05B030BD2A
:10093000444D00002C4D0000244D0000B04D00003F
:10094000494D0000D44D00004C4D000007B5034652
:100950000846197A052911D05B7A2BB1094A0A4950
:10096000019000F0FBFA01980849019000F0F6FAB6
:10097000019803B05DF804EB00F0E5BA002AF8D066
:10098000F2E700BF444D0000494D00000152000055
:100990002DE9F04385B01F460C9D002395F80C907F
:1009A0002B7306460C46904629463846FFF790FFC3
:1009B000B8F1060F09D8DFE808F00412181F283331
:1009C00040003146284600F0C9FA00222946384640
:1009D000FFF7BCFF85F80C9005B0BDE8F0832268F6
:1009E0003146284600F0BAFAEFE7D4E90023314651
:1009F000284600F0B3FAE8E7A36800933146D4E94B
:100A00000023284600F0AAFADFE7E3680193A36811
:100A100000933146D4E90023284600F09FFAD4E73A
:100A200023690293E3680193A36800933146D4E9F4
:100A30000023284600F092FAC7E76369039323690D
:100A40000293E3680193A36800933146D4E900233D
:100A5000284600F083FAB8E708292DE9F74F8046C9
:100A60000E4617461C463DD800251B7B25732146A4
:100A700010460193FFF72CFFDFF88CA0DFF88CB055
:100A8000AE4232D918F805205946204600F066FAE1
:100A90000135082DF4D11B49DFF874A0DFF874B0DC
:100AA000204600F05BFA4FF000094E4524D918F8B3
:100AB00009507E2D1ED8284603F014FD002814BFCF
:100AC0002A462E225946204600F048FA09F101092B
:100AD000B9F1080FE9D1012221463846FFF736FF68
:100AE000019B237303B0BDE8F08F5146204600F010
:100AF00035FACDE72E22E5E75146204600F02EFAE2
:100B0000E4E700BF604D00005C4D0000564D000062
:100B10005E4D0000624D000038B50A4D00F051F8FE
:100B200004212846FFF79EFE074B01245C7100F06C
:100B300021F9042105F11000FFF794FE034B5C71CD
:100B400038BD00BFCC4C0000000000200800002091
:100B50007047000007B5044B0093044A402300F09F
:100B600032F803B05DF804FB710B0000C5050020EE
:100B70002DE9F84388461446B2B10F4B0F4E0325BA
:100B8000002743F00109224608EB0701002002F08C
:100B90000DFA0744241A48B933782BB14FF47A4040
:100BA000C847013D02D13570BDE8F8830123337099
:100BB000002CE8D1F8E700BF104E0000C40500206B
:100BC000704702F03DBAF0B595B01D46164608468E
:100BD0000C4600F017FC1A9B0D93CDE90865002523
:100BE0002B46082205A920460A958DF82C500C9515
:100BF00000F024FC079B0293069B03939DF814309E
:100C00008DF8115003F00302012A1DD1BDF8142004
:100C1000059DC3F3C203C2F383168DF81030B200F2
:100C200008230EA9204600F009FCC5F3952508AB62
:100C30000093324602AB0EA92846FFF7A9FE2046D4
:100C400000F0E4FB15B0F0BD022AF8D1BDF8165053
:100C5000C3F3C203C5F389158DF810300827082D9A
:100C60002E4628BF08263B4632460EA9204600F0F5
:100C7000E5FBAD1B08AB02AA31460EA83744FFF7CF
:100C8000EBFE002DEBD1DAE7014B01221A70704721
:100C9000460600207047000070B50E4D06460FCD89
:100CA00088B06C460FC495E80F00002E84E80F0052
:100CB000094A0A484FF0060308BF0022694600931C
:100CC00001F062F908B100F058F8054B1E7008B049
:100CD00070BD00BF244E0000890C000010000020F1
:100CE0000506002007B5044B0093044A4023FFF794
:100CF0006AFF03B05DF804FB010D0000060600204A
:100D000038B50D480D4C0E4D002323700378EB5C75
:100D1000D2B263B1043001F0CFFD08B100F02DF87C
:100D2000084B1A7812B12378002BFBD038BD0C3059
:100D300001F070FBF1E700BF100000204606002024
:100D4000100700200506002008B50848084A037867
:100D5000D35C3BB1043001F013FDBDE80840002036
:100D6000FFF79ABF0C3001F0DFFAF6E71000002021
:100D7000100700200120FFF78FBF1FB5002103904F
:100D800001AA44F20100CDE9011100F003F805B019
:100D90005DF804FB38B572B6FFF786FDFFF716FC69
:100DA0000028FBD1104B114C114D1249E41AE408F4
:100DB000240444F00100FFF751FDD5F8F030DB07C3
:100DC00000D500BE0C4944F00200FFF747FDBFF319
:100DD0004F8FEA68094B02F4E0621343EB60BFF304
:100DE0004F8F00BFFDE700BF944C0000C44C0000D3
:100DF00000ED00E0504E00005C4E00000400FA05DB
:100E000072B6024A13680133136070474806002027
:100E1000034A1368013B136003B962B6704700BF11
:100E200048060020FFF7ECBFFFF7F2BF10B50346FE
:100E300053E8000F0A4643E8002494F0000FF7D16E
:100E400010BD10B5034653E8002F42EA010043E805
:100E5000000494F0000FF6D110BD10B5034653E81E
:100E6000000F00EA010243E8002494F0000FF6D1DD
:100E700010BD10B5034653E8002F02EB010043E814
:100E8000000494F0000FF6D110BD10B5034653E8EE
:100E9000002FA2EB010043E8000494F0000FF6D10C
:100EA00010BD0121FFF7CDBF0021FFF7D6BF10B560
:100EB00090B1D0E9012301689B1ADBB20A60013BC3
:100EC000DBB2FF2B026802D10020107110BD116847
:100ED0004C1C14600B70F2E70E20F7E738B504469F
:100EE0000020FFF79FFF226863681168994213D9B9
:100EF000481E106011F8013CE568218A01FB03558A
:100F0000A36811791B1ADBB2994200D21371002039
:100F1000FFF78AFF284638BD0025F8E738B50546B3
:100F200000200C46FFF77EFF2A681368591C1160E9
:100F3000E968641A298AB4FBF1F41C70BDE83840F2
:100F40000020FFF771BF826810B504462AB14369DB
:100F50000168006998470023A36010BD0EB403B573
:100F6000039921B104AB01AA019300F077F802B014
:100F70005DF804EB03B070470A2938B504460D4606
:100F800002D10D21FFF7F8FFA3682268591CA16068
:100F9000D554D4E901329A4204D32046BDE8384002
:100FA000FFF7D1BF38BD00002DE9F84F9846DDE9C5
:100FB0000A43154682460F460A464FF00109AA42E7
:100FC0000FD2C14538BFC14613F0010B01D16CB936
:100FD00000240126B8F1010F1BD908F1FF386E4338
:100FE000F8E709F10109B2FBF5F2E8E79B070ED536
:100FF000B8F1000F0CBF30262026A145E9D2013CF4
:1010000031465046FFF7B8FF002CF6D1E0E7202626
:10101000F3E7B7FBF6F39D42E1D9DFF83C80B7FB7D
:10102000F6F3504618F8031006FB1377FFF7A4FFFA
:101030003346AB42B6FBF5F6F1D2BBF1000F02D05E
:101040000CB1A14501D3BDE8F88F20215046013CE9
:10105000FFF792FFF4E700BF694E00002DE9F74F5C
:10106000054617468846002900F03E8118F8011B06
:1010700049B92B7B002B00F03781284603B0BDE82F
:10108000F04FFFF760BF252940F0B780002698F8A1
:1010900000302D2B424608F1010823D0302B24D0FC
:1010A0002B2B25D000242A2B02F1010123D13B68F0
:1010B0001A1D1B683A601C440A4613782E2B26D151
:1010C00001324FF0000A104610F8011BA1F1300C5C
:1010D000BCF1090F1DD80A2303FB0A13A3F1300A40
:1010E0000246F0E746F00106D1E746F00206CEE7F9
:1010F00046F00406CBE711F8013CA3F130000928C3
:10110000DBD80A2202FB0434303C0A46CBE74FF01E
:10111000000A12F8011B01F0FB0068289046F8D085
:10112000782909D86F290CD8632962D022D82529BB
:1011300063D0582900F0888098F80030002B95D1B2
:1011400097E770390829F7D801A353F821F000BFB9
:10115000C3120000391100003911000059120000BB
:101160003911000037120000391100003911000058
:1011700049120000642901D06929DDD13A68D2F80A
:101180000090111D89EAE9723960A2EBE9724FF013
:10119000010B092A35DCD34538BFD3462CB1B9F150
:1011A000000F01DB720700D5013CB30702D5BAF18D
:1011B000000F03D0F00701D44CBB0024B9F1000F9D
:1011C0002DDAC9F100092D212846FFF7D5FE06F0DA
:1011D0000302022A04D1BAF1000F01D11CBB002482
:1011E000CDE9004653460A2249462846FFF7DCFE71
:1011F000A2E73B681A1D19783A602846FFF7BCFE43
:101200009AE70A230BF1010BB2FBF3F2C1E7A34506
:10121000D4D220212846013CFFF7AEFECCE771076F
:10122000D5D52B21D0E7A345DAD230212846013C81
:10123000FFF7A2FED2E73968CDE900460A1D3A6001
:1012400053460A220968D0E739680A1D3A60CDE999
:10125000004653461022F5E73B681A1D3A6016F027
:101260000106D3F8009024D1B9F1000F03D048460D
:1012700003F0E2F90646B4421DD809F1FF3919F826
:10128000011F00293FF458AF2846FFF775FEF6E727
:1012900028460136FFF770FE19F806100029F7D12D
:1012A000A642BFF449AF20212846013CFFF764FE67
:1012B000F6E70026F0E720212846013CFFF75CFE18
:1012C000D9E73B681A1D3A60302128461C68FFF7B1
:1012D00053FE78212846FFF74FFE00220823CDE970
:1012E00000322146102280E703B0BDE8F08F00BF36
:1012F0002DE9F84FB0F806A04579D2F800B09DF876
:1013000028900AFB05F5043D88460BEB0301A94232
:1013100003F1040488BFA5EB030BB4FBFAF6074600
:101320000AFB1644C2F800B04EB9AAEB04055D45AD
:1013300028BF5D46BBF1000F04D1BDE8F88F3F68C0
:10134000013EF1E7043408EB06003C442A46B9F1BB
:10135000000F0DD02146ABEB050B03F0EFF8DA459B
:101360002E443F6855464FF0000428BF5D46E1E734
:1013700001462046EFE7FFF79ABDF8B546790146EA
:10138000721E0546002393422D6803D30024A64213
:1013900002D8F8BD0133F6E70F682846FFF7BEFD17
:1013A00001343946F3E72DE9F843068ACD1C074698
:1013B000FFF794FD043E35440446B5FBF6F5F0B165
:1013C0004FF48073EDB28380C680013D0760814693
:1013D0004FF00008A84512D23846FFF77FFD0646B9
:1013E00048B163790133637108F10108C9F800005D
:1013F00007608146EEE72046FFF7BFFF34462046F0
:10140000BDE8F88301210430FFF733BD10B5012199
:1014100004460430FFF739FDC0B220B92046BDE8CC
:101420001040FFF7AABF10BD1FB503920022009223
:1014300003AAFFF75DFF05B05DF804FB1FB503923B
:101440000122009203AAFFF753FF05B05DF804FBE9
:10145000836800225A60C3E904229A60DA601A6045
:1014600070470000F7B506792F4D0C237343EF1832
:101470003C7A002C55D1EA504B687B604779036871
:101480002246A446D4B2A7423CD8CA7843F30734D4
:101490005201002CC3F30733D2B23DDB234F07EBDD
:1014A000040C8CF800230122640903F01F0302FAE4
:1014B00003F347F8243003684A78D3F8040502F0B0
:1014C000030220F003000243C3F80425D3F8080503
:1014D0008A7820F0030002F003020243C3F80825D3
:1014E000D3F810050A7820F00F0102F00F020A432A
:1014F000C3F810250C2303FB065501232B72002093
:1015000003B0F0BD940004F5A074013243F804C0A8
:101510001C590194019CB5E7054C03F00F03E254FC
:10152000C9E70820ECE700BF4C06002000E100E01E
:1015300014ED00E0036801221A600279034B0C21CC
:1015400001FB023302221A72704700BF4C060020D2
:1015500037B54FF4803400688C407BB18B0003F5C5
:10156000A0730025C550C3580193019BC0F80443E4
:1015700001F5A87140F8212003B030BDC0F8084340
:10158000F6E770B4046840F20116D4F800528E40B9
:1015900025EA0605C4F80052D4F800522B43C4F8DB
:1015A00000329DF80C3070BCFFF7D2BF2DE9F3413B
:1015B000104C114F114E00254FF48038236883B131
:1015C000D7F8043308FA05F21A420AD00023236040
:1015D00023680193A4F50040019B80B2D6E9003155
:1015E00098470135042D04F10404E7D102B0BDE8A9
:1015F000F08100BF40810040008000404C06002088
:1016000000F1804000F5E040002382B003600368F1
:101610000193019B02B07047F0B5524B524CD3F886
:10162000043185B0002B3DD094F82E204FF4827009
:10163000FFF7E6FF2AB394F82F3013BB494AD2F8DC
:101640000031002B32D04FF48070FFF7D9FF638B4D
:1016500094F82D00834250D921891B1A9BB289B27C
:101660006383CB1A616801EB4303C2F82C36C2F8DE
:1016700030064FF48270FFF7C3FF3A4B01225A60E5
:1016800014E0636802932389ADF80C30E36800210D
:101690008DF8041033BB2374236801A898470023F6
:1016A00084F82F3094F82E30002BC7D12D4BD3F86F
:1016B00010315BB14FF48870FFF7A2FF0023237451
:1016C00002238DF8043001A823689847254BD3F8EE
:1016D0001431EBB14FF48A70FFF792FF00232374AB
:1016E00005B0F0BD208B608363602081E160002A3B
:1016F000D2D11C4B01221A60CEE7BAD1E368012196
:1017000084F82F1013B100216183AEE76383B0E743
:1017100066694FF000470125002EE1D0B6FA86F247
:1017200027FA02F34632920026EA030602F18043CA
:1017300003F5E0431B68002BEED01046A2F58C7237
:10174000FFF75EFFD30882F00402C2F380028DF837
:1017500008308DF8045023688DF8092001A89847B7
:10176000DAE700BF00700040580600200023435015
:1017700082B043580193019B02B070470B7B032B4F
:101780002AD8DFE803F022261A028B685A0304D510
:10179000D0F84C350A699A4207D18B685B031BD499
:1017A000D0F84C354A699A4216D000230622C0F878
:1017B0000035C0F8002518467047D0F84C350A6946
:1017C0009A42F2D1D0F83C35ECE7D0F84C350A69B2
:1017D000E9E7D0F83C35FAE701207047F0B5D0F8DA
:1017E000243187B004460D46EBB14FF49271FFF7F8
:1017F000BDFFD0F80431B3B9AB68C0F80833022399
:10180000AB60AB68C0F80433D0F860311BB1D0F8DE
:1018100000329B0502D4012323626361012385F812
:101820002E3007B0F0BDD4F80431002B41D04FF476
:1018300082712046FFF79AFF2B6A5F0609D495F85C
:101840002E3033B92946FFF799FF80F0010085F863
:101850002E002B6A5E073ED405F10C070FCF01AEB8
:101860000FC63B6833604FF4B0712046FFF77EFF30
:101870004FF4AE71FFF77AFF95F8303013B195F859
:101880002E3043B30023C4F80032AB602F4BC4F8B2
:10189000083344F30733002B4FEA14321BDB02F00A
:1018A0001F015B0901228A406033294941F8232046
:1018B00011E04FF4A4712046FFF758FF2B7B23BBA8
:1018C00005F10C070FCF01AE0FC63B68336095F8EA
:1018D0003030002BD7D0D4F8C434C4F8C4349807BF
:1018E00025D501238DF8003095F830300BB985F8F7
:1018F0002F302B6A5B0703D595F82E30002B90D044
:10190000D5E90031684698478BE74FF40073C4F877
:10191000003240F20223AB6003F1CE73C4F8083307
:10192000AB68C4F804330123A360236279E7590745
:1019300001D50223D6E7DA0701D50323D2E795F8CC
:101940002E30002BCED00423CCE700BF02029C0136
:1019500000E100E001490248FFF740BF880600208F
:101960000030004002494FF04020FFF737BF00BF72
:10197000BC0600202DE9F84F0679314D4FF0340AAE
:101980000AFB06FA05EB0A079B4697F82D308046BE
:101990000C469146002B4FD12A4B006853F8261075
:1019A00000F096FA002849D12168637B87F832302D
:1019B00001F5E0724FF0A043B860C7F804B087F8B3
:1019C0002F0087F8300040F20C6745F80A9043F882
:1019D0002270626802F5E07C43F82C70D8F8003081
:1019E000C3F80815C3F80C25A268C3F82425B9F17B
:1019F000000F14D0227B43F3073152010029C3F3B7
:101A00000733D2B213DB104C671887F8002301228A
:101A1000490903F01F0302FA03F344F82130342389
:101A200003FB0655012385F82D30BDE8F88F0749E3
:101A300003F00F03CA54F2E70820F6E71120F4E799
:101A4000880600208C4E000000E100E014ED00E06C
:101A5000036802790621C3F80015044B342101FB09
:101A60000233022283F82D20704700BF8806002031
:101A70002DE9F843DFF8C88290F804900468342612
:101A800006FB0986002386F82E30CB6803F06043FE
:101A9000B3F1005F0D46174603D010263046BDE86F
:101AA000F883A64BC4F8083396F82F3023B1B368F7
:101AB000C4F804331126F1E712F0140F0CBF012310
:101AC000002386F82F308E46BEE80F0006F10C0C7E
:101AD000ACE80F00DEF80030CCF80030C7F300139C
:101AE00086F8303037626B78C4F8883520464FF47A
:101AF0008271FFF73BFE4FF49271FFF737FE4FF410
:101B0000B071FFF733FE4FF4A471FFF72FFE17F00B
:101B1000010318BF0123C4F8503517F0020318BFA2
:101B20000123C4F840352B78032B00F2B580DFE8A1
:101B300003F084A069022B6903F06043B3F1005FF6
:101B4000ABD14FF48073C4F80032EA686B68C4F814
:101B500044254FF4A871C4F84835FFF707FE012368
:101B60002362A360D4F85031002BFBD04FF4A8714E
:101B70002046FFF7FBFDAB682A69C4F84425C4F88A
:101B80004835342303FB09834FF480229A600823ED
:101B900000263A0704D42A78032A1CBF0122E25007
:101BA000342303FB09F308EB030258F80330002B3E
:101BB00075D10125D4F84821D4F80431002B40F028
:101BC0008980003A18BF0122D4F82431002B00F09C
:101BD00088804FF492712046FFF7C8FDD4F8601159
:101BE000D4F8003209B1980504D425626561002952
:101BF000E0D00022D90574D54FF4A4712046FFF738
:101C0000B5FDD7E76B68EA68C4F84425C4F84835E1
:101C10002B6903F06042B2F1005F7FF43EAFAA6827
:101C2000C4F834354FF48453C4F83825C4F800326E
:101C3000342303FB0983022212E06B68EA68C4F8CC
:101C4000442517F0200FC4F848354FF034030BD06B
:101C50004FF48072C4F8002203FB09834FF4802202
:101C60009A600123236292E74FF40072C4F80022C5
:101C7000DFE76B68EA68C4F83425C4F838354FF4F8
:101C80008053C4F80032342303FB098302229A6094
:101C90000123236200237BE70823072679E77B07DC
:101CA00044BF002393607D0606D4342303FB0983DD
:101CB0009A6842F002029A60342303FB0988D8F83C
:101CC000083043F40073C8F80830D8F80830C4F876
:101CD0000433E3E64FF482712046FFF747FD01220B
:101CE00072E7002A3FF466AF3421D4F8C434C4F854
:101CF000C43401FB0982002082F82F0093B113F055
:101D0000010F14BF4FF40246032648F2012213F0DC
:101D1000020F18BF164613F0040F48F2022318BF33
:101D20001E46BBE67B063FF5B9AE09FB01812046A6
:101D3000FFF724FD002808BF0326AFE602029C013E
:101D40008806002010B586B00024CDE902349DF845
:101D500020308DF80510A342CDE9042401A914BF59
:101D6000202222468DF80440FFF782FE06B010BD07
:101D700010B586B0012402930023CDE903328DF81B
:101D800005101A4601A98DF804400593FFF770FE6F
:101D900006B010BD1FB503788DF800308388ADF80C
:101DA000043083688DF80630C3688DF80730036906
:101DB00002934369054A0393054B684653F8213063
:101DC00052F82110984705B05DF804FBF00600209A
:101DD000F8060020024B4FF4807043F001031847CF
:101DE000A04E00002DE9F047154690F80090324AC9
:101DF00042F82950314A42F829304B7B07460C46BD
:101E00006BB30868496882008B0002F1A04203F1BD
:101E1000A04340F20C66C2F800674FF0010AC3F815
:101E200000674FF0A0460AFA00F00AFA01F1C6F87E
:101E30000805C6F8081540F20D61C2F80017C3F88E
:101E40000017FFF7C7FF4FF00008D6F810256368AA
:101E500022FA03F3DB070DD5B8F1000F1DD1002DD9
:101E6000174A4B4608BF2A462146381DBDE8F047B1
:101E7000FFF780BD23680AFA03F3C6F80C35FFF7B5
:101E8000A9FF23680AFA03F3C6F8083508F1010828
:101E9000FFF7A0FFB8F1090FD7D1636801264FF013
:101EA000A04806FA03F3C8F80C35FFF793FF636800
:101EB0009E40C8F80865D2E7F8060020F00600202A
:101EC000951D0000014B1B68184700BF000700204C
:101ED00038B50B4B98420C4601D0002038BD00208D
:101EE000FEF7A0FF074B1D7915B901221C601A717E
:101EF0000020FEF799FF002DEFD01120EEE700BF84
:101F00000020004000070020034B984201BF034B14
:101F100000221A601A71704700200040000700205C
:101F20001FB503788DF800304368019383688DF8FE
:101F30000830C368054A0393054B684653F82130BF
:101F400052F82110984705B05DF804FB08070020FF
:101F50000C0700201FB503788DF80030436801930B
:101F600083688DF80830C368054A0393054B6846BB
:101F700053F8213052F82110984705B05DF804FB62
:101F8000080700200C070020F0B5194B90F800C09E
:101F900091F81DE043F82C20164B16460A6943F8C9
:101FA0002C20154B03F80CE00C4607460FCC89B0EB
:101FB0006D460FC594E80F0085E80F00CDF810C0FE
:101FC000BEF1000F09D0002E0C4A694608BF324608
:101FD000381D00F013FB09B0F0BD002E084A694619
:101FE00008BF324607F10C0000F0EAF8F3E700BF43
:101FF0000C0700200807002010070020211F000008
:10200000551F00000023435082B043580193019BA9
:1020100002B070470A4610B54FF48E71FFF7F2FF19
:10202000136A9168C95C136A01331362C0F81C1506
:1020300010BD8B690A4610B54FF4847123B9FFF7C0
:10204000E1FFD0F8183510BDFFF7DCFF536AD16807
:10205000D0F81805C854536A01335362F3E70000FF
:102060001FB501238DF80030044BCDE90110D3E9F1
:1020700000126846904705B05DF804FB1407002085
:1020800030B54D4DD5F804339A0585B051D5D5F806
:102090002431002B4DD04FF492712846FFF7B2FF48
:1020A0004FF40173C5F80833444B93F829200AB95B
:1020B00001226A60404902228DF80020D1F8802474
:1020C000C1F8802403929A690292DA680192002290
:1020D000C3E906226846D3E9001290473648D0F893
:1020E0001C315BB1354A5169136A99424DD992F856
:1020F0002830002B49D11146FFF78CFF2E48D0F82D
:102100004431002B56D04FF4A271FFF77BFF2B4BCD
:1021100093F829200AB1012202609A69002A49D065
:10212000586AD96800229A6105B0BDE83040FFF7CF
:1021300097BFD5F804335B07D0D5D5F80831002B0D
:10214000CCD01E4C1C482146FFF773FF636AA2697E
:102150009A42C3D1E369E1684BB1A3612369E360AB
:102160000023606AE3616362FFF77AFFB6E794F8E1
:1021700029300BB901236B600F4B4FF40172C3F888
:1021800008230023606AA361EEE70B484FF48E71C9
:10219000FFF738FF5369002BB0D05169029100233B
:1021A00091688DF80030019153616846D2E90013BF
:1021B0009847A3E705B030BD002000401407002079
:1021C0002DE9F843534D90F804802C2303FB08536A
:1021D000064693F82A300C469146002B40F0968034
:1021E0004D490068FFF774FE0746002840F09080D4
:1021F00022683068511C0BD04FF0A041012393405E
:10220000C1F8083502F5E0734FF0030C41F823C024
:1022100061684B1C1FBF01F5E0734FF0A04C4FF0FD
:10222000000E4CF823E0A369C0F8243594F814C0DC
:10223000637DBCF1010F4CEA0303C0F86C35C0F8B4
:102240001415C0F80C251DD1A268531C1FBF02F540
:10225000E0734FF0A0414FF0000C41F823C0E36859
:10226000591C0BD04FF0A04C01219940CCF8081517
:1022700003F5E0714FF0030E4CF821E0C0F808358B
:10228000C0F810252C2202FB08F2AB18C3F804900A
:102290002369AB50B9F1000F20D04FF48E71247F29
:1022A000FFF7B0FE4FF4A2713068FFF7ABFE326863
:1022B0001A4BC2F80433130B42F307326101002AB0
:1022C000C9B21EDB1648841884F800130121520994
:1022D00003F01F0301FA03F340F8223033680422AD
:1022E000C3F800252C2303FB08530022C3E9062270
:1022F00083F829205A61012283F82A203846BDE854
:10230000F883084A03F00F03D154E7E70827F5E7FD
:102310001127F3E71407002081200000800002004D
:1023200000E100E014ED00E0F8B503680579304CF9
:102330000022C3F800252C2202FB05425268A2B1FC
:102340002C4AC3F808231A0B43F30733002B0CDB8A
:1023500002F01F015B0901228A402033264941F81F
:102360002320BFF34F8FBFF36F8F0068D0F80C6549
:10237000D0F81415D0F80835D0F810254FF0FF37F5
:10238000BE42C0F8147518BF06F5E076C0F80C75AB
:10239000C0F80875C0F810751EBF4FF0A0474FF089
:1023A000020C47F826C04E1C1FBF4FF0A04601F597
:1023B000E071022746F82170511C1FBF4FF0A04169
:1023C00002F5E072022641F822605A1C1FBF03F595
:1023D000E0734FF0A042022142F82310FFF794FD72
:1023E0002C2303FB0544002384F82A306360F8BDE6
:1023F000140700208402020000E100E00279044B8F
:102400002C2101FB02335869003818BF01207047A6
:10241000140700202DE9F84F064690F804808946FD
:102420009246FFF7EBFF044600283CD1204F2C25B5
:1024300008FB057B4FF48E71CBF814A0CBF8089005
:10244000CBF820008BF828003068FFF7DBFD306800
:10245000012383605946FFF7DDFDDBF804305D465C
:102460001BBB3068DBF814402B6A9C4211D83368E0
:10247000D3F81C21002AFBD00122DA6000202C2393
:1024800003FB087700237B61BDE8F88F95F82830BF
:102490003BB9D0F81C31002BF8D05946FFF7BAFDF4
:1024A000E2E70F20EBE71120EEE72046ECE700BF64
:1024B000140700200023435082B043580193019B2E
:1024C00002B070471FB501238DF80030044BCDE9F1
:1024D0000110D3E900126846904705B05DF804FB8F
:1024E000400700207FB5434AD2F82461002E60D017
:1024F00010464FF49271FFF7DDFF02238DF8003094
:10250000D2F88034C2F880340393D2F83C35029379
:10251000394BDA6801920022C3E906226846D3E902
:10252000001290473348D0F8443173B14FF4A27190
:10253000FFF7C0FF304B9A693AB10022C3E9062287
:10254000D968D0F83C05FFF7BDFF2A48D0F8203104
:10255000ABB14FF49071FFF7ADFF0123C360264B81
:102560005A6962B1D0F84C150291002299688DF831
:10257000002001915A616846D3E9001290471D4836
:10258000D0F858319BB14FF4AC71FFF793FF1A4B61
:102590005A6962B1D0F84C150291002299688DF801
:1025A000002001915A616846D3E90012904704B0B7
:1025B00070BDD2F81031002BB4D04FF488711046A2
:1025C000FFF778FF0C4BD2F83C0599698842A9D1F6
:1025D000DC69D96864B1D2F8005225F02005C2F850
:1025E00000521A699C61DA60DE61FFF76BFF99E7C0
:1025F0009C61FAE700200040400700202DE9F843E5
:102600005A4E90F80480242303FB0863044693F891
:1026100020300D469146002B40F0A38054490068BD
:10262000FFF756FC0746002840F09D802A68206886
:10263000511C0BD04FF0A04101239340C1F8083545
:1026400002F5E0734FF0030C41F823C069684B1C9E
:102650001FBF01F5E0734FF0A04C4FF0000E4CF897
:1026600023E0AB69C0F8243595F814C06B7DBCF14C
:10267000010F4CEA0303C0F86C35C0F80C25C0F814
:1026800014151DD1AA68531C1FBF02F5E0734FF04B
:10269000A0414FF0000C41F823C0EB68591C0BD04F
:1026A0004FF0A04C01219940CCF8081503F5E071DA
:1026B0004FF0030E4CF821E0C0F80835C0F81025A3
:1026C000242202FB08F2B318C3F804902B69B3501C
:1026D000B9F1000F2FD04FF488712A7FFFF7EAFE7F
:1026E00020684FF49071FFF7E5FE20684FF4927177
:1026F000FFF7E0FE20684FF4A271FFF7DBFE4FF416
:10270000AC712068FFF7D6FE23681A49C3F804139A
:10271000190B43F307335201002BD2B21CDB1648CE
:10272000C51885F8002301225B0901F01F0102FA98
:1027300001F140F8231023680822C3F80025242360
:1027400003FB08660023C6E906337361012386F89C
:1027500020303846BDE8F883084B01F00F015A5489
:10276000E9E70827F5E71127F3E700BF4007002056
:10277000E52400001003420000E100E014ED00E059
:10278000F8B5444C0579242303FB054302465B68F6
:102790000068ABB1404BC0F8083340F30733002B5F
:1027A0004FEA10310CDB01F01F065B090121B1403B
:1027B00020333A4E46F82310BFF34F8FBFF36F8F8D
:1027C000D0F8003223F02003C0F80032242303FBAA
:1027D00005439B692BB14FF4A271FFF76BFE0123F8
:1027E00043604FF4AC71FFF765FE0123C3602423FF
:1027F00003FB0543D0F858110029FBD0996919B1A2
:10280000D0F844110029F5D00023C0F80035136832
:10281000D3F80C75D3F81465D3F80825D3F8101540
:102820004FF0FF3C6745C3F80CC518BF07F5E077CC
:10283000C3F814C5C3F808C5C3F810C51EBF4FF0D0
:10284000A0434FF0020C43F827C0771C1FBF4FF086
:10285000A04306F5E076022743F826704E1C1FBF02
:1028600001F5E0714FF0A043022643F82160531CAC
:102870001FBF4FF0A04302F5E072022143F822107F
:10288000FFF742FB242303FB0544002384F8203098
:102890006360F8BD400700201003420000E100E043
:1028A0000279044B242101FB02335869003818BF18
:1028B000012070474007002001F06043B3F1005F42
:1028C0002DE9F0470646884692463BD190F80490A1
:1028D000FFF7E6FF0446002836D11D4F3068242557
:1028E00005FB09754FF49071C5F814A0C5F8088070
:1028F000FFF7E0FD4FF4AC713068FFF7DBFD3368A4
:102900006A69A968C3F84415C3F8482501229A608A
:102910006A68DAB9D3F82021D3F858011AB9002827
:10292000F8D00F2007E00028FBD10122DA60D3F8AD
:102930005821002AFBD0242303FB097700237B6165
:10294000BDE8F0871020FBE71120F9E72046F7E704
:1029500040070020B0F5A07F10D1094A1368013369
:1029600013604FF0A042D2F80435D94301F0800142
:1029700003F08003C2F80815C2F80C35704700BF99
:10298000640700201FB513221223CDE900234FF066
:10299000CC710223CDE90213002307481A46694689
:1029A000FFF720FA08B1FEF7E8F90448FFF750F8FE
:1029B00005B05DF804FB00BFF44F0000F84F0000C5
:1029C000002108B50846FDF7AFFD08B1FEF7D5F9BF
:1029D000BDE80840FEF7A0B81FB50F4A92E8030013
:1029E00002AB83E803000D4A0D481946FEF73AFD95
:1029F00008B1FEF7C2F90B4B0B49D3F81025084874
:102A00000123D2B221FA02F200930021FEF7B9FDB0
:102A100005B05DF804FB00BFE44F0000552900003D
:102A2000EC4F00000080004000127A002DE9F041D8
:102A30004FF0A0430322C3F81C278022AEB0C3F896
:102A40000825FFF7BDFFFFF79DFF504B5048514948
:102A5000514D524EC01AC008000440F00300FDF76B
:102A6000FDFEFFF7B9FF4E48FEF764FD01211AA8ED
:102A700001F0EEFB01464B4801F016FC1AA800F0ED
:102A800061FE0146484801F00FFC00238DF8373005
:102A900008238DF83830052301248DF834301AA925
:102AA00002230DA88DF835308DF8364000F046FF32
:102AB00001463E4801F0F8FB9DF868103C4800F0E4
:102AC000C1FA4FF496731AAAADF83E300FA96423E9
:102AD0002046ADF840308DF83C4001F033FA014615
:102AE000344801F0E1FB344800F0ACFA334F40F2D7
:102AF0002D139C4201D130BFFDE71AA9012000F03F
:102B0000CBFE0146284601F0CFFB1AAA0DA90120F1
:102B100000F0B2FFBDF840301B994FF47A7202FB0F
:102B200003002C9B98471AAB0DF1330214A9012026
:102B3000D6F8008000F0E2FF0146384601F0B4FB11
:102B40009DF83330002BD2D032229DF850301998A6
:102B5000089302FB08F20B9201F0E6FBCDE90601B7
:102B6000189801F0E1FBCDE90401179801F0DCFBB6
:102B7000CDE90201169801F0D7FB0B9ACDE90001CF
:102B800021460F4800F05EFA0134AFE7944C000094
:102B9000C44C0000B54E0000854F000064070020C3
:102BA000EC4F0000CA4E0000E04E0000EC4E00006A
:102BB000FC4E00000B4F0000214F0000984F00001A
:102BC000A84F00004FF08053D3F83001421C04BFDF
:102BD0004FF0704393F8E00F831F584258417047FD
:102BE0004FF0704393F8E02F062A09D1D3F8E83F5D
:102BF000C3F30313033B042B02D8024AD05C704793
:102C00000020704713500000024AD2F80034002B15
:102C1000FBD0704700E0014010B5FFF7D3FF40B193
:102C20004FF08053944AD3F82433C3F30423C2F8FB
:102C30004035FFF7D5FF10B1904B914A5A67FFF727
:102C4000C1FF48B14FF080534FF08042D3F8443277
:102C5000C3F34233C2F83C35FFF7C2FF30B1894AB3
:102C6000D2F8FC3023F08073C2F8FC30FFF7AAFFE3
:102C700040B14FF080430022C3F80C21C3F810216B
:102C8000C3F83825FFF7ACFF20B14FF08043032293
:102C9000C3F8A025FFF7A4FF60B17B4B0522C3F862
:102CA00010260122C3F888260022C3F818263F22E6
:102CB000C3F814264FF08053D3F83021511C09BFBC
:102CC0004FF07043D3F8343193F8E02FD3F8E83F56
:102CD00008BFC3F30313062A4DD1033B042B03D8CB
:102CE0006A4AD35C002B46D04FF08052684BD2F832
:102CF0000414C3F82015D2F80814C3F82415D2F828
:102D00000C14C3F82815D2F81014C3F82C15D2F8F7
:102D10001414C3F83015D2F81814C3F83415D2F8C7
:102D20001C14C3F84015D2F82014C3F84415D2F887
:102D30002414C3F84815D2F82814C3F84C15D2F857
:102D40002C14C3F85015D2F83014C3F85415D2F827
:102D50003414C3F86015D2F83814C3F86415D2F8E7
:102D60003C14C3F86815D2F84014C3F86C15D2F8B7
:102D70004424C3F87025FFF725FF48B14FF0805376
:102D80004FF08042D3F8583203F04F03C2F8E43ECC
:102D9000FFF718FF48B14FF08043D3F80024D20763
:102DA00044BF6FF00102C3F800244FF08053D3F802
:102DB0003021062A0ED1D3F83431033B042B02D83C
:102DC000344AD35C33B1344AD2F83C3743F480639D
:102DD000C2F83C372B4AD2F8883043F47003C2F86B
:102DE0008830BFF34F8FBFF36F8F4FF08053D3F80E
:102DF0003021062A0FD1D3F83431033B042B02D8FB
:102E0000264AD35C3BB14FF01023D3F808224FF091
:102E10008043C3F858254FF01023D3F80022002A2E
:102E200003DBD3F80432002B22DA1D4901234FF0D3
:102E30001020C1F804351524FFF7E6FEC0F8004263
:102E4000FFF7E2FEC0F80442FFF7DEFE0023C1F800
:102E50000435FFF7D9FEBFF34F8F0A49114BCA68FB
:102E600002F4E0621343CB60BFF34F8F00BFFDE776
:102E70000D4B0E4A1A6010BD0030014000C00740E3
:102E80000DF0ADBA00ED00E000500040045000002D
:102E900000C0004009500000001000400E5000002B
:102EA00000E001400400FA05240000200090D00357
:102EB0000369C26893429CBF80681B18013B981A43
:102EC00070472DE9F843D0E902940546A9EB0408C0
:102ED0004068904520440F46144404D901F02EFB6D
:102EE000EC60BDE8F8834246A4EB090401F026FB40
:102EF0006868224607EB0801F0E72DE9F843C5684A
:102F00000646894617464FF000083469B368706872
:102F1000A54228BFE418013C621B5C1BBC4228BFD1
:102F20003C46944228BF144649462844224601F0B4
:102F300005FBB3682544AB4208BF00253F1BA044F6
:102F4000A144F560E1D14046BDE8F88310B5114CCD
:102F5000114AA2610223C4E90433104BE361A26465
:102F60004FF400730E4A0F492362E26400231022DB
:102F7000E01DA3626362E362A3656365E3652265A6
:102F800001F038FB0849204601F034FB2023A371EF
:102F900010BD00BF6807002018500000F007002097
:102FA000E0070020215000002550000070B5164BAE
:102FB000182400FB04451D4404FB00331646DC6A5C
:102FC000012C0ED0022C18D0E4B92846FFF770FF70
:102FD000864204D832462846FFF773FF344620461F
:102FE00070BD2846FFF764FF8642344628BF04467A
:102FF00022462846FFF765FFF1E72846BDE8704006
:10300000FFF77BBF0024EAE76807002070B50B4B91
:103010001B7804460D4616460BB9FFF797FF0020B4
:10302000FDF700FF324629462046FFF7BFFF044662
:103030000020FDF7F9FE204670BD00BF68070020A4
:10304000FFF784BF0FB410B5A2B024AB802153F8B2
:10305000042B019302A801F061FA802804460ADDDE
:10306000802202A90020FFF7D1FF204622B0BDE850
:10307000104004B070470028F7DD0246F1E7000079
:10308000CB8B9FED1A7A9FED1A6A07EE900A00EE3D
:10309000103AF8EE676AF8EE407A9FED160AB1F939
:1030A000203027EE677A20EE670ADFED137AA6EE6E
:1030B000867AA6EEA70A06EE903A91F9223007EE3C
:1030C000903AF8EEE77AB3EE006A67EE867A20EE81
:1030D000000AF8EEE66A67EE807A9FED080AE7EEEE
:1030E000267A87EE800AC1ED0E7A70470000803A9A
:1030F0000000803800000039000000370000A045C3
:1031000091ED0E7A91F92830DFED546A9FED546A03
:10311000DFED544AF6EE007AE7EE276A07EE903AC2
:10312000B1F92630F8EEE77A07EE103A67EEA67AA4
:10313000B8EEC77A67EEA67A27EE267A8B8CA7EED2
:10314000867ADFED497AB7EE006A27EE277AF0EE4D
:10315000467AE7EE247A06EE103AB8EE466A04EEB6
:10316000100A26EE276AFDEEC67A17EE903A002B7B
:1031700070D091F92E309FED3D5A07EE103AB1F91B
:103180002C30B8EEC77A05EE903A66EEA67A27EEB6
:10319000057AF8EEE55A27EE277A65EEA65AF0EEA4
:1031A000007AA5EEA77AB1F92A30F5EE007A27EE7B
:1031B000277A07EE903ADFED2E6AB1F93230F8EE59
:1031C000E77AA7EEA67AF8EE447ADFED2A6A76EE81
:1031D000E76ADFED297AE7EE676A9FED287A26EE47
:1031E000877ADFED276A87EE060A07EE103AB1F913
:1031F000303007EE903A60EE266AB8EEC77AF8EE05
:10320000E77A26EEA66A27EE007A67EEA47A66EEE3
:10321000266A27EE007A91F834309FED1A6A67EE3D
:10322000807AE7EE067A07EE103AB8EEC77A91F99F
:103230002F3027EE057AE6EE877A07EE103ADFEDBB
:10324000126AB8EEC77AE7EE267A9FED107AA7EEFB
:10325000870A70479FED0E0A704700BF00007AC7CB
:103260000000803800000038000000360000003701
:103270000000804700008049000080390050C345AD
:103280000000803B00000030000000430000803D53
:103290000000000091ED0E7ADFED317A0B8ADFED50
:1032A000315AC7EE276A07EE903A91F9143007EECB
:1032B000103ABAEEEF7AF8EE677A27EE267AB3EE96
:1032C000006AA7EE867A91F9153007EE900AB8EEFB
:1032D000670A07EE903AF8EEE77A91F9163067EE52
:1032E000A57A30EE477A06EE103AB7EE000AA7EE5E
:1032F000A60A4B8ABAEEC66AF0EE407A26EE266A35
:1033000000EE103AE6EE267ACB7DBBEEC70A20EE41
:10331000270A20EE070A07EE103A91F9183007EE57
:10332000903AFAEEE57AB8EE477A67EEA67AE7EEDB
:10333000257A67EE807AA7EE800ADFED0B7AB4EE8D
:10334000E70AF1EE10FA07DCB5EEC00AF1EE10FA6A
:1033500004D59FED060A7047B0EE670A704700BFBC
:103360000000A045000080380000C84200000000B6
:1033700091F91930DFED306A9FED307A9FED306AB8
:1033800007EE903AB1F91A30F8EEE77AB0F5C87F57
:10339000A7EEA67A28BF4FF4C87082B007EE903A25
:1033A000DFED286A91F91C30FAEEE87AE7EE866ADA
:1033B00007EE900AB7EE006AF8EE677AF0EE465A2A
:1033C000E7EEA65A07EE903A91F90E3006EE903AE3
:1033D000FAEECB7AF8EEE66A91F83C3067EEA67A20
:1033E000E5EE877A07EE103AB8EE477AF1EE005A2A
:1033F00037EE257A91F93D30C5EE876AF0EE465AF0
:1034000026EEA77A07EE903ADFED0F6AF8EEE77A3C
:10341000E7EEA65AFBEE097AC6EE256AE7EE267AB3
:103420009FED0A7A67EE877AFCEEE77ACDED017AB6
:103430009DF8040002B070470000803D0000444247
:103440006F12033A75021A3B6F12033B9A99594067
:1034500048B1036C3BB1436C2BB1806CB0FA80F087
:103460004009404270474FF0FF30704710B50446A6
:103470001046FFF7EDFF50B923788B4206D9217033
:1034800092F84D3043F0010382F84D3010BD4FF0FB
:10349000FF30FBE773B502460846FFF7D9FF0C463D
:1034A000054640BB12F0800F4A7B14BF0023102357
:1034B0009A4220D04B730E6C4B6801220DF107012C
:1034C000F320B04784F84C0098B99DF80730627B30
:1034D000666C02F0100223F0100313438DF80730DE
:1034E000012263680DF107017320B04784F84C0096
:1034F00008B16FF00105284602B070BD37B504462B
:10350000FFF7A6FF70B9256C636801220DF1070172
:10351000F320A84784F84C0030B99DF8073003F039
:103520001003637303B030BD6FF00100FAE70000D1
:10353000F0B52D4C9FED2D7A26460F4606EE900AEB
:1035400006EE102A0FCEA1B06D460FC50FCE0FC5E7
:103550000FCE0FC596E80F00403485E80F000FCC62
:1035600010AD0FC50FCC0FC50FCC0FC594E80F00E1
:10357000B8EEC66A85E80F0020AB03EB8703F1EED7
:10358000045AF0EE477AE6EE257A9FED197A53ED6C
:10359000205A9FED186AF8EE666AB7EE000A76EEDA
:1035A000C76A85EE867A37EE007A27EE277AC6EE6E
:1035B000877A13ED107A77EE806AC7EE067A0123D8
:1035C000BB409FED0D7A77EE807A27EE877A07EE83
:1035D000903AF8EEE77A67EE277A66EEA77A80EE01
:1035E000270A21B0F0BD00BF345000000080A7447E
:1035F000000000440000C842BD3706342DE9F04306
:1036000087B01C4607460D4616460021102202A828
:10361000019100F0BCFF2046FFF71AFF98BB97B35B
:103620008DB3731E092B31D8013D0DF1040807EB52
:1036300006094F4512D170B97200656C63689DF838
:103640000400013A0DF10501A847002884F84C0058
:1036500018BF6FF0010007B0BDE8F083227B3B7814
:10366000012A06D118462146FFF714FF3B7803F0E4
:103670007F0388F8003015F8013F88F801300137E2
:1036800008F10208D5E74FF0FF30E4E76FF00300E0
:10369000E1E72DE9F042064618461D46FFF7D8FE41
:1036A0000F4691460446D0B9C9B12B7B012B07D1F7
:1036B00029463046FFF7EEFE044608B946F080067C
:1036C00030466B682E6C4A463946B047002885F86C
:1036D0004C0018BF6FF001042046BDE8F0824FF0A7
:1036E000FF34F9E737B5E0238DF80630B6230546F9
:1036F0008DF80730FFF7ACFE044688B92B7B012B11
:1037000011D02B460DF1070101220DF10600FFF744
:1037100075FFAB6C6968044642F2107098474CB173
:10372000204603B030BD2846FFF7E8FE04460028D7
:10373000F6D1E6E72B7B012BF2D12846FFF7DEFE20
:103740000446EDE710B58CB00446FFF7CBFF034607
:10375000002840F09B80234601222146D020FFF71D
:1037600098FF0346002840F091802278612A40F0BB
:1037700090808DF804002346012201A9F020FFF774
:1037800088FF0346002840F081809DF80430A36044
:103790001722234601A98A20FFF77BFF0346002852
:1037A00074D123460E220DF11B01E120FFF771FFBA
:1037B000034600286AD1234605220DF12901FFF7AF
:1037C00068FF0346002861D1BDF82320E283BDF8DD
:1037D000042022849DF8062084F82220BDF80820C9
:1037E000A284BDF80A20E2849DF80C2084F82820E9
:1037F000BDF80E206285BDF81020A2859DF813202B
:1038000084F82E209DF8122084F82F20BDF8162071
:103810002286BDF8182062869DF81A2084F834208C
:103820009DF81C209DF81D0002F00F0141EA0011D7
:1038300021829DF81B10120942EA011262829DF852
:103840001E2022759DF81F2062759DF82020A2750C
:103850009DF82120E2759DF8222022769DF82720F0
:103860006276BDF8252062839DF8282022779DF896
:103870002B20C2F3011284F83C209DF8292084F803
:103880003D209DF92D20121184F83E2018460CB0E1
:1038900010BD6FF00203F9E773B5742306460D46B9
:1038A0008DF807302B4601220DF106017420FFF739
:1038B000F0FE0446B8B99DF80620930716D022F012
:1038C00003028DF806202B460DF1060101220DF1B1
:1038D0000700FFF793FEAB6C6968044642F2107074
:1038E0009847002CDED0204602B070BD002EFAD0E2
:1038F00022F0030206F0030632438DF806202B4621
:1039000001220DF106010DF10700FFF777FE0446D5
:10391000E9E713B50B46044660B101220DF107013A
:103920007420FFF7B6FE9DF8073003F00303237001
:1039300002B010BD4FF0FF30FAE70000F0B54D4B7C
:1039400087B0064618681B7902908DF80C300DF18F
:10395000070000230D4604938DF81430FFF7D9FFBC
:103960000446002840F082802946FFF795FF07466D
:10397000044666B94FF0FF349DF8070020B11CB92A
:103980002946FFF789FF0446204607B0F0BD00280E
:10399000F2D19DF808002B46052204A9FFF779FE15
:1039A00085F84D7004460028E6D12A460721F01C10
:1039B000FFF75CFD04460028DED10521701CFFF7EF
:1039C00055FD04460028D7D1B01CFFF74FFD044633
:1039D0000028D1D13046FFF749FD04460028CBD15D
:1039E0000821301DFFF742FD04460028C4D1F278BB
:1039F0009DF814307178920023F01C0302F01C0231
:103A00001A439DF8133003F01F0343EA4113B178C2
:103A1000890001F01C0123F01C030B438DF81330C7
:103A200031789DF8113001F0070123F007030B43B3
:103A300031798DF811309DF81030082912BF00201F
:103A40000120002102F01F0203F07F0342EA41122D
:103A500043EAC0138DF814208DF8103005222B4650
:103A600004A902A8FFF7CAFD044685E7002E83D10A
:103A700080E700BF2C50000037B51F4B0546D3F838
:103A80008000B3F884300090ADF804300C4611B9D2
:103A9000002003B030BD0521601CFFF7E7FC0028C3
:103AA000F6D1A01CFFF7E2FC0028F1D12046FFF779
:103AB000DDFC0028ECD16378A27808336B44022D3A
:103AC00013F8080C02F108030DEB030212F8083C8E
:103AD0001844237803F108036B4413F8083C0344AB
:103AE00040F2AB7000FB03F30BBF03F5865003F508
:103AF000A55040180D30CCE7345000002DE9F04FB0
:103B0000B5B01E4622AB019204460F461846482225
:103B1000002100F03CFD28AB0A900B9330462EAB01
:103B20000C93FFF795FC054628B14FF0FF34204673
:103B300035B0BDE8F08F002FF7D0012C40F0DB80CE
:103B4000159001460D2216A800F021FD05253346EB
:103B5000112215A91D20FFF79CFD9DF85520BA7074
:103B60009DF8562002929DF8572003929DF8582008
:103B700004929DF85920059204469DF85A209DF81C
:103B8000540006929DF85C20079200F080039DF897
:103B90005D20089200F00F009DF861207870099276
:103BA000B2689DF862A09DF864809DF85B909DF8D6
:103BB00063B0012A13BF0AF0200208F020021A4362
:103BC00013430CBF08F010030AF0100213433B70BC
:103BD0001B0679D5002C7DD133460122F91C5A30C1
:103BE000FFF757FD0446002874D1787850303346EB
:103BF0000122391DC0B2FFF74CFD0446002869D1EF
:103C00007878643033460122791DC0B2FFF741FD58
:103C1000044600285ED1069B4FEA191040EA0310C3
:103C2000059B314640EA0330FFF72AFA049B87EDF3
:103C3000020A1809039B40EA0310029B40EA033082
:103C4000FFF75EFADDE9072387ED030A43EA022066
:103C5000FFF720FBB36887ED040A012B26D14FEA5A
:103C6000981343EA8B0B08F00F084FF4802323FAD4
:103C700008F307EE103ADFEDB27AB8EEC77A0BEB35
:103C80004B0B0BF5206B27EE277A07EE90BAF8EE78
:103C9000E77AC7EE276AC7ED056A97F90030002B6F
:103CA000B5BF01250025002402241EE0099B96F9DA
:103CB0003E204FEA9A100AF00F0140EA8300FFF716
:103CC00037FC87ED050AE8E724B9B36C716842F266
:103CD00010709847013D15F0FF0504D0002C3FF40B
:103CE00036AF002501E0002CD7D0019B002B3FF41C
:103CF0001CAF1D701BE7023C012C00F21F81014626
:103D000015902F2216A800F042FC1A2229460EA870
:103D10000D9500F03CFC3346332215A91D20FFF71A
:103D2000B8FC04468246002840F0968033461E22A6
:103D30000DA95020FFF7ADFC15ADDFED813A04462B
:103D4000002840F089800AAB95F8039053F82A8048
:103D50006B7888F80230AB78A8792A7A297895F8B8
:103D60000EB04FEA091949EA03392B7949EA1319C8
:103D70006B79000140EA0330EB7940EA131307EE58
:103D8000903A6B7AB06843EA02236A7B0292EA7B3C
:103D900003922A7C049301280CBF02F0300E0BF032
:103DA000300E01F0800C01F00F014CEA0E0C01F115
:103DB000D00388F800C00DEB030C01F1D0031CF810
:103DC0009CCC88F804C00DEB030C01F1D00388F8FB
:103DD00001100DEB03011CF892CC11F8881C88F837
:103DE00003C017EE900A88F805103146FFF748F92E
:103DF000484688ED020AFFF783F9049B88ED030A21
:103E00001846FFF747FAB36888ED040A012B3AD148
:103E10000399930943EA810302F00F024FF48021D2
:103E200021FA02F207EE902A03EB430303F5206325
:103E3000F8EEE77A07EE103A67EEA37AB8EEC77AA3
:103E400087EE870A0AF1010ABAF1030F05F111059D
:103E500088ED050A7FF477AF0DF1280E7246032333
:103E60000025002C51D152F8041B91F900100029B3
:103E7000B8BF013503F1FF33B8BFEDB213F0FF0354
:103E8000F1D1704639E0029B96F93E204FEA9B1033
:103E90000BF00F0140EA8300FFF74AFBD2E74FF037
:103EA0000209DCF8006051F8043B96F900A093F990
:103EB0000020BAF1000F16DA002A16DA96F802A0EE
:103EC0009A78A2EB0A0292B202F1020A1FFA8AFA67
:103ED000BAF1010F02D912B2022A06DDCCF8003085
:103EE00041F8046C01E0002AF8DBB9F1020FD6D1E9
:103EF000B8F1020F4FF0010307D001335FFA83F8E6
:103F0000844604300146C146CBE74FF000084FF02D
:103F100018097CB95EF804CBBCE80F0009FB0876F1
:103F20000FC69CE8030008F10108B8F1030F86E80A
:103F30000300EFD1002D08BF0224D6E60124D4E609
:103F4000002474492DE9F04F93B047F270130646F0
:103F50001746ADF814300D46002900F09380114645
:103F60000020FFF799FC0446002840F0F5808D4AB8
:103F70006E23D2F88600D2F88A108DF8133006AB83
:103F800003C3B2F88E201A8009AB03C31A800CABAE
:103F900003C31A800FAB03C3022E1A800DF1180859
:103FA0000DF124090DF13C0A00F09E80032E64D02F
:103FB000012E40F0F5805A2368888DF81830394674
:103FC000FFF7D6F964238DF83030AB888DF82400E4
:103FD000B3F57C6F4FD23F2BE2B204F1010448D815
:103FE00003EB8213DBB28DF83C304FF0000A3B4606
:103FF000324649464046FFF701FB0446002840F0A0
:10400000AB803B4632460FA90CA8FFF7F7FA0446EF
:10401000002840F0A1803B4602220FA97020FFF744
:1040200038FB0446002840F097802B78012B40F0A5
:10403000B480BA68012A08BF02239DF83C2022F010
:10404000080242EAC4049DF83D208DF83C4022F06D
:104050000F024AEA020A2AF0300A4AEA031A022246
:104060003B460FA905A88DF83DA0FFF7C7FA044607
:1040700072E09B08AFE7FF23B5E7D5F80CB0BBF1C2
:10408000000F02D14FF0FF3466E0AB68002BF9D08F
:104090002E7CE2B2B24201D3B246A8E702F15A0145
:1040A00008F80410394633F814000193FFF760F95B
:1040B0000CAB64321A5509F804003BF81420019B3C
:1040C000B2F57C6F0ED200213F2AC8B201F1010186
:1040D00006D802EB8012D2B20AF804200134D8E7E5
:1040E0009208F1E7FF22F7E7D5F80CB0BBF1000F1B
:1040F000C8D0AB680193002BC4D06B8A2E7CCDF85E
:1041000008A0002B08BF032400225FFA82FA56455C
:1041100026D840F2827293423DD84FF47A725343CC
:1041200040F2DD12B3FBF2F300229BB23F2BD1B27F
:1041300002F101022DD803EB8113DBB28DF81230AE
:1041400054B93B4601220DF112010DF11300FFF7A6
:1041500055FA044600289FD0204613B0BDE8F08FE2
:104160000AF15A0108F802100393019B394633F80B
:104170001200FFF7FDF80CAB0AF1640A03F802A085
:1041800009F80200029B3BF81210D154039B013244
:10419000BBE79B08CAE7FF23D0E7034601244CE7AF
:1041A0000124D9E73450000030B5154685B00D4ADA
:1041B00060F07F000C4619781070002300930A48C5
:1041C00003910123FDF7BEFD039910B140B205B084
:1041D00030BD0548EBB22246FDF7CAFD003818BFD6
:1041E0000120F4E7F00900204C5200002DE9F041D5
:1041F0000025ADF5027D93F8008002951446074630
:104200000E464FF4FE72294603A800F0C0F922467C
:1042100031460DF109008DF8087000F08FF9009516
:10422000E3B202AA41460448FDF78CFD28460DF58D
:10423000027DBDE8F08100BF4C52000020B1034B6D
:10424000800143F001031847704700BF405200004F
:1042500070B50446D0B1012907D10E4B0173762207
:104260001A700D4B03640D4B43640D4E642546F0EC
:1042700001064FF47A40B047013DFAD1094BA364DF
:10428000044B63601923A373284670BD4FF0FF30C1
:10429000FBE700BFF00B0020A9410000ED4100004A
:1042A000405200003D4200004B1D0A46072B27D814
:1042B000DFE803F01D13180E0804262201461248F9
:1042C000FEF7C0BE014611484FF0FF32FEF7BABEFE
:1042D00001466FF001020E48F8E701466FF0030255
:1042E0000C48F3E701466FF002020B48EEE7014687
:1042F0006FF004020948E9E7014602220848E5E7B1
:1043000001460848E2E700BFC4500000DD5000004D
:10431000085100003C51000075510000A4510000FC
:10432000D251000004520000C0F3C75191B14200C5
:104330004FEA40704FEAD2014FEA310101F160517A
:10434000B2F17F4F38BF704701F1605118BF41F49F
:104350000021704710F00041002070477F2805D8E9
:10436000034A044B105C5B5C1840704700207047A8
:1043700064520000E4520000A0F16103192B98BFC1
:1043800020387047A0F14103192B98BF20307047A7
:104390007F299ABF017001206FF02E00704700BF87
:1043A0005AB10A787F2A0AD800B102600021501A57
:1043B000C3E9001118BF01207047104670476FF025
:1043C0002E007047A0F16103192B98BF2038704769
:1043D000A0F14103192B98BF203070477F2805D8E2
:1043E000034A044B105C5B5C184070470020704728
:1043F00064520000E452000038B58568044608465F
:1044000045B122686168531C8B4208BF00208A4274
:104410000AD2A854E26823682AB161688B4202D2AA
:104420002146904723680133236038BD70B54D1E87
:1044300022D413681446C6B20EE0D0542368E26852
:104440002AB16168994202D9214690472368013D0B
:1044500001336A1C23600FD0A26872B1616803F156
:10446000010C8C4514BF304600209942E5D8013D2F
:1044700063466A1C2360EFD170BD3046DFE700BFA2
:10448000C3062BD410F4007F70B514BF302620264D
:104490004D1E22D413681446F6B20EE0D0542368A1
:1044A000E2682AB16168994202D92146904723689F
:1044B000013D01336A1C23600FD0A2687AB16168A4
:1044C00003F1010C8C4514BF304600209942E5D819
:1044D000013D63466A1C2360EFD170BD70473046D2
:1044E000DEE700BF024B5B689B6809211B68184729
:1044F00028000020027862B169B100EB010C03468C
:1045000001E0634503D013F8011F0029F9D1181AFF
:104510007047104670470846704700BF30B5944654
:1045200085B00025CDE902050C461A46614668466D
:10453000019400F0B1F805B030BD00BF844640EAF8
:10454000010313F0030F18D18446202A0BD32DE961
:10455000F007B1E8F807A0E8F807A2F12002202A46
:10456000F7D2BDE8F007042A07D351F8043B40F81E
:10457000043BA2F10402042AF7D2002A05D011F864
:10458000013B00F8013B013AF9D16046704784468F
:10459000002A2DD010F0030F04D000F8011B013ABF
:1045A00026D0F7E7C9B241EA012141EA0141202AB8
:1045B00012D3A2F120022DE9F0030B460C460D4662
:1045C0000E460F4688468946A0E8FA03203AFBD2F9
:1045D000BDE8F00320320BD0042A05D340F8041BB9
:1045E000043A05D0042AF9D200F8011B013AFBD1A4
:1045F00060467047024610F0030F16D111F0030F0A
:1046000013D12DE9F0004FF001374FF0803351F80E
:10461000044BA4EB070525EA04051D4002D142F82E
:10462000044BF4E7A1F10401F0BC11F8013B02F8DE
:10463000013B002BF9D1704700F1010110F0030F8D
:1046400011D010F8012B002A23D010F0030F0AD04C
:1046500010F8012B002A1CD010F0030F03D010F823
:10466000012B002A15D02DE970004FF001324FF0D8
:10467000803350F8044BA4EB020525EA04051D40E5
:1046800000D1F6E7A0F1040070BC10F8012B002A5D
:10469000FBD1A0EB010070472DE9F04F00230C4641
:1046A000036089B014F8011B03920746002900F04B
:1046B000E582DFF8DC9507E03846FFF79DFE14F849
:1046C000011B002900F058812529F5D1224600263A
:1046D00012F8010B302800F29E801F280ED9A0F19D
:1046E0002003102B0AD8DFE803F0AC0909A8090958
:1046F00009A4090909A0099C09098D002A2840F08C
:10470000FC80039B10781D680433002D0393BCBF0D
:104710006D4246F01006A21C2E2800F004810021F4
:10472000742800F092807A2800F08F806C2800F0C6
:1047300032814C2800F03581682800F0BE81144693
:10474000002800F08880A0F12503DAB2532A00F295
:104750002B81532B00F22881DFE813F0EB012601B7
:104760002601260126012601260126012601260111
:104770002601260126012601260126012601260101
:1047800026012601260126012601260126012601F1
:1047900026012601260126012601260126012601E1
:1047A00026012601260126012601260126012601D1
:1047B00026012601260126012601260126012601C1
:1047C0002601820026012601260126012601260156
:1047D0002601260126012601D601F6002601260122
:1047E00026012601F6002601260126012601500297
:1047F0004802130226012601ED012601CB01260104
:104800002601840046F400761446224612F8010B75
:1048100030287FF662AF5E286FD146F4805614468A
:10482000F3E746F010061446EFE746F0200614467C
:10483000EBE746F400461446E7E746F080061446E8
:10484000E3E746F040061446DFE7144614F8010B90
:1048500000287FF478AF4FF0FF3009B0BDE8F08F4B
:1048600046F4005616F0800A06D043F2780A43F266
:104870005803782818BF9A4616F4807307BF06F4C9
:104880008042B04626F4007806F48042002A61D1C6
:10489000039A18F0040F02F104060396126800F060
:1048A000A08092B2002B65D028F4007858382028D8
:1048B00000F29D80DFE810F073019B009B009B00DD
:1048C0009B009B009B009B009B009B009B009B0010
:1048D000D4009B009B009B009B00D4009B009B008E
:1048E0009B009B009B00090173019B009B009B00A8
:1048F0009B00D4009B009B007301A0F13004E3B245
:10490000092B4FF000053FF607AF12F8010B05EB3E
:10491000850504EB4505A0F13004E3B2092BF4D979
:104920002E287FF4FCAE10782A2840F07781039B74
:1049300050781968941C0433002903932246FFF62B
:10494000EFAE46F48076EBE646F4804806F48073DA
:104950004FF0000A039A18F0040F02F104060396C0
:10496000126830D012B2002A31DA52424FF02D0ACA
:10497000002B99D1012199E73868BB68002B3FF4DF
:104980006CAF7A6882427FF668AF00221A543868AA
:1049900009B0BDE8F08F144646F0010614F8010B8B
:1049A000CEE646F001061446B54BD3F80080B8F1C8
:1049B000000F3FF484AE009103A901912B463246CB
:1049C0003946C0477BE618F0080FCCD0D2B218F0B9
:1049D000200F40F03E8118F0400F18BF4FF0200A22
:1049E00060E718F0080F3FF45DAFD2B25AE74FF01E
:1049F000FF36002321EAE17BA5EB0B05BAF1FF0F9F
:104A0000A5EB030540F20481CAF307213846023DB5
:104A1000FFF7F2FC5FFA8AF13846FFF7EDFC4046FB
:104A20003A462946FFF72CFD3A4659463020FFF713
:104A3000FDFC731C0AD001360DF1140A564416F819
:104A4000011D3846FFF7D8FCB245F8D118F0100F19
:104A50003FF435AE29463A462020FFF7E7FC2EE624
:104A60001046002A00F0068108F4004C624600233C
:104A70008C464FF02C0E114603F0030209B1032AB5
:104A800014D01E46A9FB0032D20802EB820306F1C5
:104A9000200BA0EB4303EB44303309280BF80C3C0C
:104AA00006F1010340F2D2801046E5E703F120024F
:104AB0006A445E1C02F80CECE4E71078682800F009
:104AC000D480541C46F004063AE61046002A00F052
:104AD000D1800DF1140C002302F007023032C0081F
:104AE0000CF8012B1E46024601330028F4D1C91AE6
:104AF00080E716F4807300F0AF8026F4007806F4A7
:104B000080424FF0000AC1E6039B013D191D93F856
:104B1000008003913A4629463046FFF7B1FC4146F2
:104B20003846FFF769FCB3461BF0100F3FF4C7ADE2
:104B300090E72521C0E5039B524A181D0390D3F846
:104B400000A0BAF1000F08BF9246F205D04626F445
:104B5000007B504640F18580FFF7CCFC0646AD1B3C
:104B60003A4629465846FFF78BFC002EDCD018F851
:104B7000011B3846FFF740FCAAEB0803F342F6D1CD
:104B8000D2E7039B1A1D039216F0800F1A6846F4B1
:104B900080780CBF4FF0000A4FF0230A082110461E
:104BA000002A67D008F4005C634605AA8C460026FC
:104BB000A346194609E0344B000913F80E3002F8F9
:104BC000013B06F101030DD01E4600F00F0E002937
:104BD000F1D12E4C000914F80E3002F8013B06F119
:104BE0000103F1D161465C46C91A03E716F0800F54
:104BF0000CBF4FF0000A4FF0300A3DE6039B3A68C5
:104C0000191D03911B6831074CBF1A701A6056E5D5
:104C1000BAF1000F3FF403AF013DFBE6A0F1300411
:104C2000E3B2092B02F101024FF000013FF689AE19
:104C300012F8010B01EB810104EB4101A0F13004FA
:104C4000E3B2092BF4D946F4807669E56146C91AC6
:104C5000D0E64FF02B0A25E606F48042B0469A468D
:104C600014E6FFF7E9FC064679E7507846F00806B7
:104C7000941C65E513464FF0FF36BBE608467CE61C
:104C8000F40B0020B8540000A85400009854000011
:044C9000CDCCCCCCEF
:104C9400A64E0000000000007F4E0000000000004F
:104CA400794E000000000000854E00000000000066
:104CB400AA4E000000000000AF4E000000000000FB
:084CC400114D00000000030384
:104CCC00184E000000000000F94D0000000000200C
:104CDC00444E000000000000E84D000008000020D9
:104CEC003C000020040100200C01002044000020A6
:044CFC00180000009C
:104D00004261636B656E647320666C75736865647D
:104D100000617070000000002C0500207F00000082
:104D2000AC0500201B5B313B33316D0025734C6FAC
:104D300067732064726F707065642028256429256C
:104D4000730D0A001B5B306D002573003C25733E1C
:104D50002025733A200020253032780020202000C2
:104D60007C002563001B5B313B33306D001B5B31E6
:104D70003B33326D001B5B313B33336D001B5B31CA
:104D80003B33346D001B5B313B33356D001B5B31B6
:104D90003B33366D001B5B313B33376D00776172FF
:104DA0006E696E6700696E666F00646562756700A4
:104DB000444D0000654D0000244D00006D4D000085
:104DC000754D00007D4D0000854D00008D4D0000AB
:104DD000954D000000000000564E00009D4D000063
:104DE000A54D0000AA4D0000756172745F6C6F677D
:104DF0005F6261636B656E64007274745F6C6F6791
:104E00005F6261636B656E6400000000000000007B
:104E10000338FDD870470000550B0000C10B00009F
:104E2000510B0000FFFFFFFFFFFFFFFFFFFFFFFF32
:104E3000FFFFFFFF00000000000000000000D6019F
:104E400006010000E50C0000490D0000950C000073
:104E5000466174616C206572726F7200537973746D
:104E6000656D2072657365740030313233343536C8
:104E700037383941424344454654494D4552005321
:104E800041414443005457494D000000551900006A
:104E90006519000000000000000000000000000094
:104EA0000338FDD8704750525300554152540055B5
:104EB00041525445005374617274696E672074687E
:104EC000652070726F6772616D00626D653638784B
:104ED0005F696E746572666163655F696E697400AF
:104EE000626D653638785F696E697400626D65362B
:104EF00038785F7365745F636F6E660063686970AE
:104F000020696420307825780A0A00626D65363899
:104F1000785F7365745F68656174725F636F6E66F6
:104F20000053616D706C652C2054696D655374611C
:104F30006D70286D73292C2054656D7065726174D5
:104F4000757265286465672043292C20507265734B
:104F500073757265285061292C2048756D696469E4
:104F60007479282525292C2047617320726573697F
:104F70007374616E6365286F686D292C20537461AA
:104F80007475730A00626D653638785F7365745F97
:104F90006F705F6D6F646500626D653638785F674E
:104FA00065745F646174610025752C20256C752C17
:104FB00020252E32662C20252E32662C20252E32DE
:104FC000662C20252E32662C20307825780A0000A9
:104FD00000000000020000030000000000020000CA
:104FE00004000000000003060000000000800040F4
:104FF000000400000000000000300040000000003D
:10500000010000000000010101000000010100009A
:1050100000000101000000005465726D696E616C52
:1050200000525454005345474745520071727374FF
:1050300075000000000000000000000000000000FB
:105040000000000000000000000080BF0000000021
:10505000CDCC4CBF0000000000000000CDCC4CBE09
:10506000000000BF00000000000080BF0000000042
:105070000000000000000000000000000000000030
:1050800000000000CDCCCC3D3333333F00000000A6
:10509000CDCC4CBFCDCCCCBD00000000000000004A
:1050A0000000000000000000000000000000000000
:1050B00000000000000102040810000000000000D1
:1050C00000000000415049206E616D65205B257332
:1050D0005D3A20547574746F206F6B0A004150491B
:1050E000206E616D65205B25735D20204572726FB7
:1050F00072205B25645D203A204E756C6C20706FC9
:10510000696E7465720D0A00415049206E616D65CB
:10511000205B25735D20204572726F72205B2564D1
:105120005D203A20436F6D6D756E69636174696FC0
:105130006E206661696C7572650D0A0041504920E8
:105140006E616D65205B25735D20204572726F7204
:10515000205B25645D203A20496E636F727265633F
:1051600074206C656E67746820706172616D65741F
:1051700065720D0A00415049206E616D65205B2506
:10518000735D20204572726F72205B25645D203A4A
:1051900020446576696365206E6F7420666F756E56
:1051A000640D0A00415049206E616D65205B2573D6
:1051B0005D20204572726F72205B25645D203A206D
:1051C00053656C662074657374206572726F720D1E
:1051D0000A00415049206E616D65205B25735D209A
:1051E000205761726E696E67205B25645D203A20EE
:1051F0004E6F206E6577206461746120666F756EF6
:10520000640D0A00415049206E616D65205B257375
:105210005D20204572726F72205B25645D203A200C
:10522000556E6B6E6F776E206572726F7220636F52
:1052300064650D0A0000000000000000000000008E
:105240000338FDD870470000000000000030004027
:10525000000000000100000043000000504F5349CF
:10526000580000002020202020202020206828280E
:10527000282820202020202020202020202020201E
:1052800020202020481010101010101010101010A6
:105290001010101084848484848484848484101086
:1052A00010101010108181818181810101010101A3
:1052B00001010101010101010101010101010110CF
:1052C0001010101010828282828282020202020278
:1052D00002020202020202020202020202020210A0
:1052E0001010102000070320041702010857104077
:1052F00080000000585200005C5300007054000011
:1053000053756E004D6F6E005475650057656400EF
:105310005468750046726900536174000000000013
:105320004A616E00466562004D6172004170720014
:105330004D6179004A756E004A756C0041756700D1
:10534000536570004F6374004E6F760044656300D0
:1053500000000000414D00504D000000945400003A
:1053600090540000905400009054000090540000AD
:10537000905400009054000090540000905400009D
:1053800090540000FFFFFFFFFFFFFFFFFFFFFFFF45
:10539000FFFF0000D0530000005300000C54000039
:1053A0002053000054530000B45300006454000024
:1053B000C0530000256D2F25642F257900000000C3
:1053C00025612025622025652025542025590000CF
:1053D00053756E646179004D6F6E64617900547528
:1053E0006573646179005765646E65736461790003
:1053F00054687572736461790046726964617900FA
:105400005361747572646179000000004A616E75C1
:10541000617279004665627275617279004D6172E0
:10542000636800417072696C004D6179004A756E65
:1054300065004A756C790041756775737400536532
:105440007074656D626572004F63746F626572009F
:105450004E6F76656D62657200446563656D626569
:105460007200000025483A254D3A255300000000FF
:105470005D4300007943000085430000DD430000E8
:10548000C5430000D143000091430000A143000048
:10549000000000002E000000303132333435363742
:1054A000383961626364656630313233343536379A
:1054B0003839414243444546286E756C6C290000DA
:1054C00000000000FF00000000000000FF000000DE
:1054D000000000000020004000000000002000400C
:1054E000000000000090D003F4520000F4520000CD
:0C54F000F4520000F4520000F4520000DE
:040000030000037581
:00000001FF
